{
  "_format": "hh-sol-artifact-1",
  "contractName": "MyTokenSale",
  "sourceName": "contracts/MyTokenSale.sol",
  "abi": [
    {
      "inputs": [
        {
          "internalType": "uint256",
          "name": "initialSupply",
          "type": "uint256"
        },
        {
          "internalType": "uint256",
          "name": "_tokenPrice",
          "type": "uint256"
        }
      ],
      "stateMutability": "nonpayable",
      "type": "constructor"
    },
    {
      "inputs": [
        {
          "internalType": "address",
          "name": "spender",
          "type": "address"
        },
        {
          "internalType": "uint256",
          "name": "allowance",
          "type": "uint256"
        },
        {
          "internalType": "uint256",
          "name": "needed",
          "type": "uint256"
        }
      ],
      "name": "ERC20InsufficientAllowance",
      "type": "error"
    },
    {
      "inputs": [
        {
          "internalType": "address",
          "name": "sender",
          "type": "address"
        },
        {
          "internalType": "uint256",
          "name": "balance",
          "type": "uint256"
        },
        {
          "internalType": "uint256",
          "name": "needed",
          "type": "uint256"
        }
      ],
      "name": "ERC20InsufficientBalance",
      "type": "error"
    },
    {
      "inputs": [
        {
          "internalType": "address",
          "name": "approver",
          "type": "address"
        }
      ],
      "name": "ERC20InvalidApprover",
      "type": "error"
    },
    {
      "inputs": [
        {
          "internalType": "address",
          "name": "receiver",
          "type": "address"
        }
      ],
      "name": "ERC20InvalidReceiver",
      "type": "error"
    },
    {
      "inputs": [
        {
          "internalType": "address",
          "name": "sender",
          "type": "address"
        }
      ],
      "name": "ERC20InvalidSender",
      "type": "error"
    },
    {
      "inputs": [
        {
          "internalType": "address",
          "name": "spender",
          "type": "address"
        }
      ],
      "name": "ERC20InvalidSpender",
      "type": "error"
    },
    {
      "anonymous": false,
      "inputs": [
        {
          "indexed": true,
          "internalType": "address",
          "name": "owner",
          "type": "address"
        },
        {
          "indexed": true,
          "internalType": "address",
          "name": "spender",
          "type": "address"
        },
        {
          "indexed": false,
          "internalType": "uint256",
          "name": "value",
          "type": "uint256"
        }
      ],
      "name": "Approval",
      "type": "event"
    },
    {
      "anonymous": false,
      "inputs": [
        {
          "indexed": false,
          "internalType": "uint256",
          "name": "newPrice",
          "type": "uint256"
        }
      ],
      "name": "PriceUpdated",
      "type": "event"
    },
    {
      "anonymous": false,
      "inputs": [
        {
          "indexed": true,
          "internalType": "address",
          "name": "buyer",
          "type": "address"
        },
        {
          "indexed": false,
          "internalType": "uint256",
          "name": "amount",
          "type": "uint256"
        },
        {
          "indexed": false,
          "internalType": "uint256",
          "name": "cost",
          "type": "uint256"
        }
      ],
      "name": "TokensPurchased",
      "type": "event"
    },
    {
      "anonymous": false,
      "inputs": [
        {
          "indexed": true,
          "internalType": "address",
          "name": "from",
          "type": "address"
        },
        {
          "indexed": true,
          "internalType": "address",
          "name": "to",
          "type": "address"
        },
        {
          "indexed": false,
          "internalType": "uint256",
          "name": "value",
          "type": "uint256"
        }
      ],
      "name": "Transfer",
      "type": "event"
    },
    {
      "inputs": [
        {
          "internalType": "address",
          "name": "owner",
          "type": "address"
        },
        {
          "internalType": "address",
          "name": "spender",
          "type": "address"
        }
      ],
      "name": "allowance",
      "outputs": [
        {
          "internalType": "uint256",
          "name": "",
          "type": "uint256"
        }
      ],
      "stateMutability": "view",
      "type": "function"
    },
    {
      "inputs": [
        {
          "internalType": "address",
          "name": "spender",
          "type": "address"
        },
        {
          "internalType": "uint256",
          "name": "value",
          "type": "uint256"
        }
      ],
      "name": "approve",
      "outputs": [
        {
          "internalType": "bool",
          "name": "",
          "type": "bool"
        }
      ],
      "stateMutability": "nonpayable",
      "type": "function"
    },
    {
      "inputs": [
        {
          "internalType": "address",
          "name": "account",
          "type": "address"
        }
      ],
      "name": "balanceOf",
      "outputs": [
        {
          "internalType": "uint256",
          "name": "",
          "type": "uint256"
        }
      ],
      "stateMutability": "view",
      "type": "function"
    },
    {
      "inputs": [
        {
          "internalType": "uint256",
          "name": "tokenAmount",
          "type": "uint256"
        }
      ],
      "name": "buyTokens",
      "outputs": [],
      "stateMutability": "payable",
      "type": "function"
    },
    {
      "inputs": [],
      "name": "decimals",
      "outputs": [
        {
          "internalType": "uint8",
          "name": "",
          "type": "uint8"
        }
      ],
      "stateMutability": "view",
      "type": "function"
    },
    {
      "inputs": [],
      "name": "getContractBalance",
      "outputs": [
        {
          "internalType": "uint256",
          "name": "",
          "type": "uint256"
        }
      ],
      "stateMutability": "view",
      "type": "function"
    },
    {
      "inputs": [],
      "name": "name",
      "outputs": [
        {
          "internalType": "string",
          "name": "",
          "type": "string"
        }
      ],
      "stateMutability": "view",
      "type": "function"
    },
    {
      "inputs": [],
      "name": "owner",
      "outputs": [
        {
          "internalType": "address",
          "name": "",
          "type": "address"
        }
      ],
      "stateMutability": "view",
      "type": "function"
    },
    {
      "inputs": [
        {
          "internalType": "uint256",
          "name": "newPrice",
          "type": "uint256"
        }
      ],
      "name": "setTokenPrice",
      "outputs": [],
      "stateMutability": "nonpayable",
      "type": "function"
    },
    {
      "inputs": [],
      "name": "symbol",
      "outputs": [
        {
          "internalType": "string",
          "name": "",
          "type": "string"
        }
      ],
      "stateMutability": "view",
      "type": "function"
    },
    {
      "inputs": [],
      "name": "tokenPrice",
      "outputs": [
        {
          "internalType": "uint256",
          "name": "",
          "type": "uint256"
        }
      ],
      "stateMutability": "view",
      "type": "function"
    },
    {
      "inputs": [],
      "name": "totalSupply",
      "outputs": [
        {
          "internalType": "uint256",
          "name": "",
          "type": "uint256"
        }
      ],
      "stateMutability": "view",
      "type": "function"
    },
    {
      "inputs": [
        {
          "internalType": "address",
          "name": "to",
          "type": "address"
        },
        {
          "internalType": "uint256",
          "name": "value",
          "type": "uint256"
        }
      ],
      "name": "transfer",
      "outputs": [
        {
          "internalType": "bool",
          "name": "",
          "type": "bool"
        }
      ],
      "stateMutability": "nonpayable",
      "type": "function"
    },
    {
      "inputs": [
        {
          "internalType": "address",
          "name": "from",
          "type": "address"
        },
        {
          "internalType": "address",
          "name": "to",
          "type": "address"
        },
        {
          "internalType": "uint256",
          "name": "value",
          "type": "uint256"
        }
      ],
      "name": "transferFrom",
      "outputs": [
        {
          "internalType": "bool",
          "name": "",
          "type": "bool"
        }
      ],
      "stateMutability": "nonpayable",
      "type": "function"
    },
    {
      "inputs": [],
      "name": "withdrawETH",
      "outputs": [],
      "stateMutability": "nonpayable",
      "type": "function"
    }
  ],
  "bytecode": "0x608060405234801561001057600080fd5b506040516121ed3803806121ed83398181016040528101906100329190610434565b6040518060400160405280600781526020017f4d79546f6b656e000000000000000000000000000000000000000000000000008152506040518060400160405280600381526020017f4d544b000000000000000000000000000000000000000000000000000000000081525081600390816100ad91906106ba565b5080600490816100bd91906106ba565b50505033600660006101000a81548173ffffffffffffffffffffffffffffffffffffffff021916908373ffffffffffffffffffffffffffffffffffffffff1602179055508060058190555061013c3361011a61014360201b60201c565b600a61012691906108fb565b846101319190610946565b61014c60201b60201c565b5050610a79565b60006012905090565b600073ffffffffffffffffffffffffffffffffffffffff168273ffffffffffffffffffffffffffffffffffffffff16036101be5760006040517fec442f050000000000000000000000000000000000000000000000000000000081526004016101b591906109c9565b60405180910390fd5b6101d0600083836101d460201b60201c565b5050565b600073ffffffffffffffffffffffffffffffffffffffff168373ffffffffffffffffffffffffffffffffffffffff160361022657806002600082825461021a91906109e4565b925050819055506102f9565b60008060008573ffffffffffffffffffffffffffffffffffffffff1673ffffffffffffffffffffffffffffffffffffffff168152602001908152602001600020549050818110156102b2578381836040517fe450d38c0000000000000000000000000000000000000000000000000000000081526004016102a993929190610a27565b60405180910390fd5b8181036000808673ffffffffffffffffffffffffffffffffffffffff1673ffffffffffffffffffffffffffffffffffffffff16815260200190815260200160002081905550505b600073ffffffffffffffffffffffffffffffffffffffff168273ffffffffffffffffffffffffffffffffffffffff1603610342578060026000828254039250508190555061038f565b806000808473ffffffffffffffffffffffffffffffffffffffff1673ffffffffffffffffffffffffffffffffffffffff168152602001908152602001600020600082825401925050819055505b8173ffffffffffffffffffffffffffffffffffffffff168373ffffffffffffffffffffffffffffffffffffffff167fddf252ad1be2c89b69c2b068fc378daa952ba7f163c4a11628f55a4df523b3ef836040516103ec9190610a5e565b60405180910390a3505050565b600080fd5b6000819050919050565b610411816103fe565b811461041c57600080fd5b50565b60008151905061042e81610408565b92915050565b6000806040838503121561044b5761044a6103f9565b5b60006104598582860161041f565b925050602061046a8582860161041f565b9150509250929050565b600081519050919050565b7f4e487b7100000000000000000000000000000000000000000000000000000000600052604160045260246000fd5b7f4e487b7100000000000000000000000000000000000000000000000000000000600052602260045260246000fd5b600060028204905060018216806104f557607f821691505b602082108103610508576105076104ae565b5b50919050565b60008190508160005260206000209050919050565b60006020601f8301049050919050565b600082821b905092915050565b6000600883026105707fffffffffffffffffffffffffffffffffffffffffffffffffffffffffffffffff82610533565b61057a8683610533565b95508019841693508086168417925050509392505050565b6000819050919050565b60006105b76105b26105ad846103fe565b610592565b6103fe565b9050919050565b6000819050919050565b6105d18361059c565b6105e56105dd826105be565b848454610540565b825550505050565b600090565b6105fa6105ed565b6106058184846105c8565b505050565b5b818110156106295761061e6000826105f2565b60018101905061060b565b5050565b601f82111561066e5761063f8161050e565b61064884610523565b81016020851015610657578190505b61066b61066385610523565b83018261060a565b50505b505050565b600082821c905092915050565b600061069160001984600802610673565b1980831691505092915050565b60006106aa8383610680565b9150826002028217905092915050565b6106c382610474565b67ffffffffffffffff8111156106dc576106db61047f565b5b6106e682546104dd565b6106f182828561062d565b600060209050601f8311600181146107245760008415610712578287015190505b61071c858261069e565b865550610784565b601f1984166107328661050e565b60005b8281101561075a57848901518255600182019150602085019450602081019050610735565b868310156107775784890151610773601f891682610680565b8355505b6001600288020188555050505b505050505050565b7f4e487b7100000000000000000000000000000000000000000000000000000000600052601160045260246000fd5b60008160011c9050919050565b6000808291508390505b6001851115610812578086048111156107ee576107ed61078c565b5b60018516156107fd5780820291505b808102905061080b856107bb565b94506107d2565b94509492505050565b60008261082b57600190506108e7565b8161083957600090506108e7565b816001811461084f576002811461085957610888565b60019150506108e7565b60ff84111561086b5761086a61078c565b5b8360020a9150848211156108825761088161078c565b5b506108e7565b5060208310610133831016604e8410600b84101617156108bd5782820a9050838111156108b8576108b761078c565b5b6108e7565b6108ca84848460016107c8565b925090508184048111156108e1576108e061078c565b5b81810290505b9392505050565b600060ff82169050919050565b6000610906826103fe565b9150610911836108ee565b925061093e7fffffffffffffffffffffffffffffffffffffffffffffffffffffffffffffffff848461081b565b905092915050565b6000610951826103fe565b915061095c836103fe565b925082820261096a816103fe565b915082820484148315176109815761098061078c565b5b5092915050565b600073ffffffffffffffffffffffffffffffffffffffff82169050919050565b60006109b382610988565b9050919050565b6109c3816109a8565b82525050565b60006020820190506109de60008301846109ba565b92915050565b60006109ef826103fe565b91506109fa836103fe565b9250828201905080821115610a1257610a1161078c565b5b92915050565b610a21816103fe565b82525050565b6000606082019050610a3c60008301866109ba565b610a496020830185610a18565b610a566040830184610a18565b949350505050565b6000602082019050610a736000830184610a18565b92915050565b61176580610a886000396000f3fe6080604052600436106100e85760003560e01c80636f9fb98a1161008a57806395d89b411161005957806395d89b41146102eb578063a9059cbb14610316578063dd62ed3e14610353578063e086e5ec14610390576100e8565b80636f9fb98a1461022d57806370a08231146102585780637ff9b596146102955780638da5cb5b146102c0576100e8565b806323b872dd116100c657806323b872dd14610180578063313ce567146101bd5780633610724e146101e85780636a61e5fc14610204576100e8565b806306fdde03146100ed578063095ea7b31461011857806318160ddd14610155575b600080fd5b3480156100f957600080fd5b506101026103a7565b60405161010f919061102b565b60405180910390f35b34801561012457600080fd5b5061013f600480360381019061013a91906110e6565b610439565b60405161014c9190611141565b60405180910390f35b34801561016157600080fd5b5061016a61045c565b604051610177919061116b565b60405180910390f35b34801561018c57600080fd5b506101a760048036038101906101a29190611186565b610466565b6040516101b49190611141565b60405180910390f35b3480156101c957600080fd5b506101d2610495565b6040516101df91906111f5565b60405180910390f35b61020260048036038101906101fd9190611210565b61049e565b005b34801561021057600080fd5b5061022b60048036038101906102269190611210565b610678565b005b34801561023957600080fd5b50610242610749565b60405161024f919061116b565b60405180910390f35b34801561026457600080fd5b5061027f600480360381019061027a919061123d565b610751565b60405161028c919061116b565b60405180910390f35b3480156102a157600080fd5b506102aa610799565b6040516102b7919061116b565b60405180910390f35b3480156102cc57600080fd5b506102d561079f565b6040516102e29190611279565b60405180910390f35b3480156102f757600080fd5b506103006107c5565b60405161030d919061102b565b60405180910390f35b34801561032257600080fd5b5061033d600480360381019061033891906110e6565b610857565b60405161034a9190611141565b60405180910390f35b34801561035f57600080fd5b5061037a60048036038101906103759190611294565b61087a565b604051610387919061116b565b60405180910390f35b34801561039c57600080fd5b506103a5610901565b005b6060600380546103b690611303565b80601f01602080910402602001604051908101604052809291908181526020018280546103e290611303565b801561042f5780601f106104045761010080835404028352916020019161042f565b820191906000526020600020905b81548152906001019060200180831161041257829003601f168201915b5050505050905090565b6000806104446109fc565b9050610451818585610a04565b600191505092915050565b6000600254905090565b6000806104716109fc565b905061047e858285610a16565b610489858585610aab565b60019150509392505050565b60006012905090565b6000600554826104ae9190611363565b9050803410156104f3576040517f08c379a00000000000000000000000000000000000000000000000000000000081526004016104ea906113f1565b60405180910390fd5b6104fb610495565b600a6105079190611544565b826105129190611363565b61053d600660009054906101000a900473ffffffffffffffffffffffffffffffffffffffff16610751565b101561057e576040517f08c379a0000000000000000000000000000000000000000000000000000000008152600401610575906115db565b60405180910390fd5b6105c9600660009054906101000a900473ffffffffffffffffffffffffffffffffffffffff16336105ad610495565b600a6105b99190611544565b856105c49190611363565b610aab565b80341115610624573373ffffffffffffffffffffffffffffffffffffffff166108fc82346105f791906115fb565b9081150290604051600060405180830381858888f19350505050158015610622573d6000803e3d6000fd5b505b3373ffffffffffffffffffffffffffffffffffffffff167f8fafebcaf9d154343dad25669bfa277f4fbacd7ac6b0c4fed522580e040a0f33838360405161066c92919061162f565b60405180910390a25050565b600660009054906101000a900473ffffffffffffffffffffffffffffffffffffffff1673ffffffffffffffffffffffffffffffffffffffff163373ffffffffffffffffffffffffffffffffffffffff1614610708576040517f08c379a00000000000000000000000000000000000000000000000000000000081526004016106ff906116a4565b60405180910390fd5b806005819055507f66cbca4f3c64fecf1dcb9ce094abcf7f68c3450a1d4e3a8e917dd621edb4ebe08160405161073e919061116b565b60405180910390a150565b600047905090565b60008060008373ffffffffffffffffffffffffffffffffffffffff1673ffffffffffffffffffffffffffffffffffffffff168152602001908152602001600020549050919050565b60055481565b600660009054906101000a900473ffffffffffffffffffffffffffffffffffffffff1681565b6060600480546107d490611303565b80601f016020809104026020016040519081016040528092919081815260200182805461080090611303565b801561084d5780601f106108225761010080835404028352916020019161084d565b820191906000526020600020905b81548152906001019060200180831161083057829003601f168201915b5050505050905090565b6000806108626109fc565b905061086f818585610aab565b600191505092915050565b6000600160008473ffffffffffffffffffffffffffffffffffffffff1673ffffffffffffffffffffffffffffffffffffffff16815260200190815260200160002060008373ffffffffffffffffffffffffffffffffffffffff1673ffffffffffffffffffffffffffffffffffffffff16815260200190815260200160002054905092915050565b600660009054906101000a900473ffffffffffffffffffffffffffffffffffffffff1673ffffffffffffffffffffffffffffffffffffffff163373ffffffffffffffffffffffffffffffffffffffff1614610991576040517f08c379a0000000000000000000000000000000000000000000000000000000008152600401610988906116a4565b60405180910390fd5b600660009054906101000a900473ffffffffffffffffffffffffffffffffffffffff1673ffffffffffffffffffffffffffffffffffffffff166108fc479081150290604051600060405180830381858888f193505050501580156109f9573d6000803e3d6000fd5b50565b600033905090565b610a118383836001610b9f565b505050565b6000610a22848461087a565b90507fffffffffffffffffffffffffffffffffffffffffffffffffffffffffffffffff811015610aa55781811015610a95578281836040517ffb8f41b2000000000000000000000000000000000000000000000000000000008152600401610a8c939291906116c4565b60405180910390fd5b610aa484848484036000610b9f565b5b50505050565b600073ffffffffffffffffffffffffffffffffffffffff168373ffffffffffffffffffffffffffffffffffffffff1603610b1d5760006040517f96c6fd1e000000000000000000000000000000000000000000000000000000008152600401610b149190611279565b60405180910390fd5b600073ffffffffffffffffffffffffffffffffffffffff168273ffffffffffffffffffffffffffffffffffffffff1603610b8f5760006040517fec442f05000000000000000000000000000000000000000000000000000000008152600401610b869190611279565b60405180910390fd5b610b9a838383610d76565b505050565b600073ffffffffffffffffffffffffffffffffffffffff168473ffffffffffffffffffffffffffffffffffffffff1603610c115760006040517fe602df05000000000000000000000000000000000000000000000000000000008152600401610c089190611279565b60405180910390fd5b600073ffffffffffffffffffffffffffffffffffffffff168373ffffffffffffffffffffffffffffffffffffffff1603610c835760006040517f94280d62000000000000000000000000000000000000000000000000000000008152600401610c7a9190611279565b60405180910390fd5b81600160008673ffffffffffffffffffffffffffffffffffffffff1673ffffffffffffffffffffffffffffffffffffffff16815260200190815260200160002060008573ffffffffffffffffffffffffffffffffffffffff1673ffffffffffffffffffffffffffffffffffffffff168152602001908152602001600020819055508015610d70578273ffffffffffffffffffffffffffffffffffffffff168473ffffffffffffffffffffffffffffffffffffffff167f8c5be1e5ebec7d5bd14f71427d1e84f3dd0314c0f7b2291e5b200ac8c7c3b92584604051610d67919061116b565b60405180910390a35b50505050565b600073ffffffffffffffffffffffffffffffffffffffff168373ffffffffffffffffffffffffffffffffffffffff1603610dc8578060026000828254610dbc91906116fb565b92505081905550610e9b565b60008060008573ffffffffffffffffffffffffffffffffffffffff1673ffffffffffffffffffffffffffffffffffffffff16815260200190815260200160002054905081811015610e54578381836040517fe450d38c000000000000000000000000000000000000000000000000000000008152600401610e4b939291906116c4565b60405180910390fd5b8181036000808673ffffffffffffffffffffffffffffffffffffffff1673ffffffffffffffffffffffffffffffffffffffff16815260200190815260200160002081905550505b600073ffffffffffffffffffffffffffffffffffffffff168273ffffffffffffffffffffffffffffffffffffffff1603610ee45780600260008282540392505081905550610f31565b806000808473ffffffffffffffffffffffffffffffffffffffff1673ffffffffffffffffffffffffffffffffffffffff168152602001908152602001600020600082825401925050819055505b8173ffffffffffffffffffffffffffffffffffffffff168373ffffffffffffffffffffffffffffffffffffffff167fddf252ad1be2c89b69c2b068fc378daa952ba7f163c4a11628f55a4df523b3ef83604051610f8e919061116b565b60405180910390a3505050565b600081519050919050565b600082825260208201905092915050565b60005b83811015610fd5578082015181840152602081019050610fba565b60008484015250505050565b6000601f19601f8301169050919050565b6000610ffd82610f9b565b6110078185610fa6565b9350611017818560208601610fb7565b61102081610fe1565b840191505092915050565b600060208201905081810360008301526110458184610ff2565b905092915050565b600080fd5b600073ffffffffffffffffffffffffffffffffffffffff82169050919050565b600061107d82611052565b9050919050565b61108d81611072565b811461109857600080fd5b50565b6000813590506110aa81611084565b92915050565b6000819050919050565b6110c3816110b0565b81146110ce57600080fd5b50565b6000813590506110e0816110ba565b92915050565b600080604083850312156110fd576110fc61104d565b5b600061110b8582860161109b565b925050602061111c858286016110d1565b9150509250929050565b60008115159050919050565b61113b81611126565b82525050565b60006020820190506111566000830184611132565b92915050565b611165816110b0565b82525050565b6000602082019050611180600083018461115c565b92915050565b60008060006060848603121561119f5761119e61104d565b5b60006111ad8682870161109b565b93505060206111be8682870161109b565b92505060406111cf868287016110d1565b9150509250925092565b600060ff82169050919050565b6111ef816111d9565b82525050565b600060208201905061120a60008301846111e6565b92915050565b6000602082840312156112265761122561104d565b5b6000611234848285016110d1565b91505092915050565b6000602082840312156112535761125261104d565b5b60006112618482850161109b565b91505092915050565b61127381611072565b82525050565b600060208201905061128e600083018461126a565b92915050565b600080604083850312156112ab576112aa61104d565b5b60006112b98582860161109b565b92505060206112ca8582860161109b565b9150509250929050565b7f4e487b7100000000000000000000000000000000000000000000000000000000600052602260045260246000fd5b6000600282049050600182168061131b57607f821691505b60208210810361132e5761132d6112d4565b5b50919050565b7f4e487b7100000000000000000000000000000000000000000000000000000000600052601160045260246000fd5b600061136e826110b0565b9150611379836110b0565b9250828202611387816110b0565b9150828204841483151761139e5761139d611334565b5b5092915050565b7f496e73756666696369656e74204554482073656e740000000000000000000000600082015250565b60006113db601583610fa6565b91506113e6826113a5565b602082019050919050565b6000602082019050818103600083015261140a816113ce565b9050919050565b60008160011c9050919050565b6000808291508390505b60018511156114685780860481111561144457611443611334565b5b60018516156114535780820291505b808102905061146185611411565b9450611428565b94509492505050565b600082611481576001905061153d565b8161148f576000905061153d565b81600181146114a557600281146114af576114de565b600191505061153d565b60ff8411156114c1576114c0611334565b5b8360020a9150848211156114d8576114d7611334565b5b5061153d565b5060208310610133831016604e8410600b84101617156115135782820a90508381111561150e5761150d611334565b5b61153d565b611520848484600161141e565b9250905081840481111561153757611536611334565b5b81810290505b9392505050565b600061154f826110b0565b915061155a836111d9565b92506115877fffffffffffffffffffffffffffffffffffffffffffffffffffffffffffffffff8484611471565b905092915050565b7f4e6f7420656e6f75676820746f6b656e7320617661696c61626c650000000000600082015250565b60006115c5601b83610fa6565b91506115d08261158f565b602082019050919050565b600060208201905081810360008301526115f4816115b8565b9050919050565b6000611606826110b0565b9150611611836110b0565b925082820390508181111561162957611628611334565b5b92915050565b6000604082019050611644600083018561115c565b611651602083018461115c565b9392505050565b7f4f6e6c79206f776e65722063616e2063616c6c20746869730000000000000000600082015250565b600061168e601883610fa6565b915061169982611658565b602082019050919050565b600060208201905081810360008301526116bd81611681565b9050919050565b60006060820190506116d9600083018661126a565b6116e6602083018561115c565b6116f3604083018461115c565b949350505050565b6000611706826110b0565b9150611711836110b0565b925082820190508082111561172957611728611334565b5b9291505056fea2646970667358221220f4086ca86306f619224f3400bd123b87887db6064f2ba9eebb20927882e3c38964736f6c634300081c0033",
  "linkReferences": {},
  "deployedLinkReferences": {}
}