{
  "_format": "hh-sol-artifact-1",
  "contractName": "LazyNFT",
  "sourceName": "contracts/LazyNFT.sol",
  "abi": [
    {
      "inputs": [],
      "stateMutability": "nonpayable",
      "type": "constructor"
    },
    {
      "inputs": [],
      "name": "ECDSAInvalidSignature",
      "type": "error"
    },
    {
      "inputs": [
        {
          "internalType": "uint256",
          "name": "length",
          "type": "uint256"
        }
      ],
      "name": "ECDSAInvalidSignatureLength",
      "type": "error"
    },
    {
      "inputs": [
        {
          "internalType": "bytes32",
          "name": "s",
          "type": "bytes32"
        }
      ],
      "name": "ECDSAInvalidSignatureS",
      "type": "error"
    },
    {
      "inputs": [
        {
          "internalType": "address",
          "name": "sender",
          "type": "address"
        },
        {
          "internalType": "uint256",
          "name": "tokenId",
          "type": "uint256"
        },
        {
          "internalType": "address",
          "name": "owner",
          "type": "address"
        }
      ],
      "name": "ERC721IncorrectOwner",
      "type": "error"
    },
    {
      "inputs": [
        {
          "internalType": "address",
          "name": "operator",
          "type": "address"
        },
        {
          "internalType": "uint256",
          "name": "tokenId",
          "type": "uint256"
        }
      ],
      "name": "ERC721InsufficientApproval",
      "type": "error"
    },
    {
      "inputs": [
        {
          "internalType": "address",
          "name": "approver",
          "type": "address"
        }
      ],
      "name": "ERC721InvalidApprover",
      "type": "error"
    },
    {
      "inputs": [
        {
          "internalType": "address",
          "name": "operator",
          "type": "address"
        }
      ],
      "name": "ERC721InvalidOperator",
      "type": "error"
    },
    {
      "inputs": [
        {
          "internalType": "address",
          "name": "owner",
          "type": "address"
        }
      ],
      "name": "ERC721InvalidOwner",
      "type": "error"
    },
    {
      "inputs": [
        {
          "internalType": "address",
          "name": "receiver",
          "type": "address"
        }
      ],
      "name": "ERC721InvalidReceiver",
      "type": "error"
    },
    {
      "inputs": [
        {
          "internalType": "address",
          "name": "sender",
          "type": "address"
        }
      ],
      "name": "ERC721InvalidSender",
      "type": "error"
    },
    {
      "inputs": [
        {
          "internalType": "uint256",
          "name": "tokenId",
          "type": "uint256"
        }
      ],
      "name": "ERC721NonexistentToken",
      "type": "error"
    },
    {
      "inputs": [],
      "name": "InvalidShortString",
      "type": "error"
    },
    {
      "inputs": [
        {
          "internalType": "string",
          "name": "str",
          "type": "string"
        }
      ],
      "name": "StringTooLong",
      "type": "error"
    },
    {
      "anonymous": false,
      "inputs": [
        {
          "indexed": true,
          "internalType": "address",
          "name": "owner",
          "type": "address"
        },
        {
          "indexed": true,
          "internalType": "address",
          "name": "approved",
          "type": "address"
        },
        {
          "indexed": true,
          "internalType": "uint256",
          "name": "tokenId",
          "type": "uint256"
        }
      ],
      "name": "Approval",
      "type": "event"
    },
    {
      "anonymous": false,
      "inputs": [
        {
          "indexed": true,
          "internalType": "address",
          "name": "owner",
          "type": "address"
        },
        {
          "indexed": true,
          "internalType": "address",
          "name": "operator",
          "type": "address"
        },
        {
          "indexed": false,
          "internalType": "bool",
          "name": "approved",
          "type": "bool"
        }
      ],
      "name": "ApprovalForAll",
      "type": "event"
    },
    {
      "anonymous": false,
      "inputs": [],
      "name": "EIP712DomainChanged",
      "type": "event"
    },
    {
      "anonymous": false,
      "inputs": [
        {
          "indexed": true,
          "internalType": "address",
          "name": "from",
          "type": "address"
        },
        {
          "indexed": true,
          "internalType": "address",
          "name": "to",
          "type": "address"
        },
        {
          "indexed": true,
          "internalType": "uint256",
          "name": "tokenId",
          "type": "uint256"
        }
      ],
      "name": "Transfer",
      "type": "event"
    },
    {
      "inputs": [
        {
          "internalType": "address",
          "name": "to",
          "type": "address"
        },
        {
          "internalType": "uint256",
          "name": "tokenId",
          "type": "uint256"
        }
      ],
      "name": "approve",
      "outputs": [],
      "stateMutability": "nonpayable",
      "type": "function"
    },
    {
      "inputs": [
        {
          "internalType": "address",
          "name": "owner",
          "type": "address"
        }
      ],
      "name": "balanceOf",
      "outputs": [
        {
          "internalType": "uint256",
          "name": "",
          "type": "uint256"
        }
      ],
      "stateMutability": "view",
      "type": "function"
    },
    {
      "inputs": [],
      "name": "eip712Domain",
      "outputs": [
        {
          "internalType": "bytes1",
          "name": "fields",
          "type": "bytes1"
        },
        {
          "internalType": "string",
          "name": "name",
          "type": "string"
        },
        {
          "internalType": "string",
          "name": "version",
          "type": "string"
        },
        {
          "internalType": "uint256",
          "name": "chainId",
          "type": "uint256"
        },
        {
          "internalType": "address",
          "name": "verifyingContract",
          "type": "address"
        },
        {
          "internalType": "bytes32",
          "name": "salt",
          "type": "bytes32"
        },
        {
          "internalType": "uint256[]",
          "name": "extensions",
          "type": "uint256[]"
        }
      ],
      "stateMutability": "view",
      "type": "function"
    },
    {
      "inputs": [
        {
          "internalType": "uint256",
          "name": "tokenId",
          "type": "uint256"
        }
      ],
      "name": "getApproved",
      "outputs": [
        {
          "internalType": "address",
          "name": "",
          "type": "address"
        }
      ],
      "stateMutability": "view",
      "type": "function"
    },
    {
      "inputs": [
        {
          "internalType": "address",
          "name": "owner",
          "type": "address"
        },
        {
          "internalType": "address",
          "name": "operator",
          "type": "address"
        }
      ],
      "name": "isApprovedForAll",
      "outputs": [
        {
          "internalType": "bool",
          "name": "",
          "type": "bool"
        }
      ],
      "stateMutability": "view",
      "type": "function"
    },
    {
      "inputs": [
        {
          "internalType": "address",
          "name": "buyer",
          "type": "address"
        },
        {
          "components": [
            {
              "internalType": "uint256",
              "name": "tokenId",
              "type": "uint256"
            },
            {
              "internalType": "string",
              "name": "uri",
              "type": "string"
            },
            {
              "internalType": "uint256",
              "name": "minPrice",
              "type": "uint256"
            },
            {
              "internalType": "bytes",
              "name": "signature",
              "type": "bytes"
            }
          ],
          "internalType": "struct LazyNFT.NFTVoucher",
          "name": "voucher",
          "type": "tuple"
        }
      ],
      "name": "lazyMint",
      "outputs": [
        {
          "internalType": "uint256",
          "name": "",
          "type": "uint256"
        }
      ],
      "stateMutability": "payable",
      "type": "function"
    },
    {
      "inputs": [],
      "name": "minter",
      "outputs": [
        {
          "internalType": "address",
          "name": "",
          "type": "address"
        }
      ],
      "stateMutability": "view",
      "type": "function"
    },
    {
      "inputs": [],
      "name": "name",
      "outputs": [
        {
          "internalType": "string",
          "name": "",
          "type": "string"
        }
      ],
      "stateMutability": "view",
      "type": "function"
    },
    {
      "inputs": [
        {
          "internalType": "uint256",
          "name": "tokenId",
          "type": "uint256"
        }
      ],
      "name": "ownerOf",
      "outputs": [
        {
          "internalType": "address",
          "name": "",
          "type": "address"
        }
      ],
      "stateMutability": "view",
      "type": "function"
    },
    {
      "inputs": [
        {
          "internalType": "address",
          "name": "from",
          "type": "address"
        },
        {
          "internalType": "address",
          "name": "to",
          "type": "address"
        },
        {
          "internalType": "uint256",
          "name": "tokenId",
          "type": "uint256"
        }
      ],
      "name": "safeTransferFrom",
      "outputs": [],
      "stateMutability": "nonpayable",
      "type": "function"
    },
    {
      "inputs": [
        {
          "internalType": "address",
          "name": "from",
          "type": "address"
        },
        {
          "internalType": "address",
          "name": "to",
          "type": "address"
        },
        {
          "internalType": "uint256",
          "name": "tokenId",
          "type": "uint256"
        },
        {
          "internalType": "bytes",
          "name": "data",
          "type": "bytes"
        }
      ],
      "name": "safeTransferFrom",
      "outputs": [],
      "stateMutability": "nonpayable",
      "type": "function"
    },
    {
      "inputs": [
        {
          "internalType": "address",
          "name": "operator",
          "type": "address"
        },
        {
          "internalType": "bool",
          "name": "approved",
          "type": "bool"
        }
      ],
      "name": "setApprovalForAll",
      "outputs": [],
      "stateMutability": "nonpayable",
      "type": "function"
    },
    {
      "inputs": [
        {
          "internalType": "bytes4",
          "name": "interfaceId",
          "type": "bytes4"
        }
      ],
      "name": "supportsInterface",
      "outputs": [
        {
          "internalType": "bool",
          "name": "",
          "type": "bool"
        }
      ],
      "stateMutability": "view",
      "type": "function"
    },
    {
      "inputs": [],
      "name": "symbol",
      "outputs": [
        {
          "internalType": "string",
          "name": "",
          "type": "string"
        }
      ],
      "stateMutability": "view",
      "type": "function"
    },
    {
      "inputs": [
        {
          "internalType": "uint256",
          "name": "tokenId",
          "type": "uint256"
        }
      ],
      "name": "tokenURI",
      "outputs": [
        {
          "internalType": "string",
          "name": "",
          "type": "string"
        }
      ],
      "stateMutability": "view",
      "type": "function"
    },
    {
      "inputs": [
        {
          "internalType": "address",
          "name": "from",
          "type": "address"
        },
        {
          "internalType": "address",
          "name": "to",
          "type": "address"
        },
        {
          "internalType": "uint256",
          "name": "tokenId",
          "type": "uint256"
        }
      ],
      "name": "transferFrom",
      "outputs": [],
      "stateMutability": "nonpayable",
      "type": "function"
    }
  ],
  "bytecode": "0x610160604052600160085534801561001657600080fd5b506040518060400160405280600781526020017f4c617a794e4654000000000000000000000000000000000000000000000000008152506040518060400160405280600181526020017f31000000000000000000000000000000000000000000000000000000000000008152506040518060400160405280600781526020017f4c617a794e4654000000000000000000000000000000000000000000000000008152506040518060400160405280600481526020017f4c4e46540000000000000000000000000000000000000000000000000000000081525081600090816100fe919061056e565b50806001908161010e919061056e565b50505061012560068361020160201b90919060201c565b610120818152505061014160078261020160201b90919060201c565b6101408181525050818051906020012060e08181525050808051906020012061010081815250504660a0818152505061017e61025160201b60201c565b608081815250503073ffffffffffffffffffffffffffffffffffffffff1660c08173ffffffffffffffffffffffffffffffffffffffff1681525050505033600960006101000a81548173ffffffffffffffffffffffffffffffffffffffff021916908373ffffffffffffffffffffffffffffffffffffffff16021790555061083a565b60006020835110156102235761021c836102ac60201b60201c565b905061024b565b826102338361031460201b60201c565b6000019081610242919061056e565b5060ff60001b90505b92915050565b60007f8b73c3c69bb8fe3d512ecc4cf759cc79239f7b179b0ffacaa9a75d522b39400f60e0516101005146306040516020016102919594939291906106a9565b60405160208183030381529060405280519060200120905090565b600080829050601f815111156102f957826040517f305a27a90000000000000000000000000000000000000000000000000000000081526004016102f09190610781565b60405180910390fd5b805181610305906107d3565b60001c1760001b915050919050565b6000819050919050565b600081519050919050565b7f4e487b7100000000000000000000000000000000000000000000000000000000600052604160045260246000fd5b7f4e487b7100000000000000000000000000000000000000000000000000000000600052602260045260246000fd5b6000600282049050600182168061039f57607f821691505b6020821081036103b2576103b1610358565b5b50919050565b60008190508160005260206000209050919050565b60006020601f8301049050919050565b600082821b905092915050565b60006008830261041a7fffffffffffffffffffffffffffffffffffffffffffffffffffffffffffffffff826103dd565b61042486836103dd565b95508019841693508086168417925050509392505050565b6000819050919050565b6000819050919050565b600061046b6104666104618461043c565b610446565b61043c565b9050919050565b6000819050919050565b61048583610450565b61049961049182610472565b8484546103ea565b825550505050565b600090565b6104ae6104a1565b6104b981848461047c565b505050565b5b818110156104dd576104d26000826104a6565b6001810190506104bf565b5050565b601f821115610522576104f3816103b8565b6104fc846103cd565b8101602085101561050b578190505b61051f610517856103cd565b8301826104be565b50505b505050565b600082821c905092915050565b600061054560001984600802610527565b1980831691505092915050565b600061055e8383610534565b9150826002028217905092915050565b6105778261031e565b67ffffffffffffffff8111156105905761058f610329565b5b61059a8254610387565b6105a58282856104e1565b600060209050601f8311600181146105d857600084156105c6578287015190505b6105d08582610552565b865550610638565b601f1984166105e6866103b8565b60005b8281101561060e578489015182556001820191506020850194506020810190506105e9565b8683101561062b5784890151610627601f891682610534565b8355505b6001600288020188555050505b505050505050565b6000819050919050565b61065381610640565b82525050565b6106628161043c565b82525050565b600073ffffffffffffffffffffffffffffffffffffffff82169050919050565b600061069382610668565b9050919050565b6106a381610688565b82525050565b600060a0820190506106be600083018861064a565b6106cb602083018761064a565b6106d8604083018661064a565b6106e56060830185610659565b6106f2608083018461069a565b9695505050505050565b600082825260208201905092915050565b60005b8381101561072b578082015181840152602081019050610710565b60008484015250505050565b6000601f19601f8301169050919050565b60006107538261031e565b61075d81856106fc565b935061076d81856020860161070d565b61077681610737565b840191505092915050565b6000602082019050818103600083015261079b8184610748565b905092915050565b600081519050919050565b6000819050602082019050919050565b60006107ca8251610640565b80915050919050565b60006107de826107a3565b826107e8846107ae565b90506107f3816107be565b925060208210156108335761082e7fffffffffffffffffffffffffffffffffffffffffffffffffffffffffffffffff836020036008026103dd565b831692505b5050919050565b60805160a05160c05160e0516101005161012051610140516130c761089460003960006110be0152600061108301526000611ecb01526000611eaa01526000611a8801526000611ade01526000611b0701526130c76000f3fe6080604052600436106100f35760003560e01c806370a082311161008a578063b88d4fde11610059578063b88d4fde14610342578063c87b56dd1461036b578063e985e9c5146103a8578063fe0ad28b146103e5576100f3565b806370a082311461028057806384b0196e146102bd57806395d89b41146102ee578063a22cb46514610319576100f3565b8063095ea7b3116100c6578063095ea7b3146101c857806323b872dd146101f157806342842e0e1461021a5780636352211e14610243576100f3565b806301ffc9a7146100f857806306fdde03146101355780630754617214610160578063081812fc1461018b575b600080fd5b34801561010457600080fd5b5061011f600480360381019061011a919061207b565b610415565b60405161012c91906120c3565b60405180910390f35b34801561014157600080fd5b5061014a6104f7565b604051610157919061216e565b60405180910390f35b34801561016c57600080fd5b50610175610589565b60405161018291906121d1565b60405180910390f35b34801561019757600080fd5b506101b260048036038101906101ad9190612222565b6105af565b6040516101bf91906121d1565b60405180910390f35b3480156101d457600080fd5b506101ef60048036038101906101ea919061227b565b6105cb565b005b3480156101fd57600080fd5b50610218600480360381019061021391906122bb565b6105e1565b005b34801561022657600080fd5b50610241600480360381019061023c91906122bb565b6106e3565b005b34801561024f57600080fd5b5061026a60048036038101906102659190612222565b610703565b60405161027791906121d1565b60405180910390f35b34801561028c57600080fd5b506102a760048036038101906102a2919061230e565b610715565b6040516102b4919061234a565b60405180910390f35b3480156102c957600080fd5b506102d26107cf565b6040516102e59796959493929190612477565b60405180910390f35b3480156102fa57600080fd5b50610303610879565b604051610310919061216e565b60405180910390f35b34801561032557600080fd5b50610340600480360381019061033b9190612527565b61090b565b005b34801561034e57600080fd5b506103696004803603810190610364919061269c565b610921565b005b34801561037757600080fd5b50610392600480360381019061038d9190612222565b610946565b60405161039f919061216e565b60405180910390f35b3480156103b457600080fd5b506103cf60048036038101906103ca919061271f565b610a62565b6040516103dc91906120c3565b60405180910390f35b6103ff60048036038101906103fa9190612783565b610af6565b60405161040c919061234a565b60405180910390f35b60007f80ac58cd000000000000000000000000000000000000000000000000000000007bffffffffffffffffffffffffffffffffffffffffffffffffffffffff1916827bffffffffffffffffffffffffffffffffffffffffffffffffffffffff191614806104e057507f5b5e139f000000000000000000000000000000000000000000000000000000007bffffffffffffffffffffffffffffffffffffffffffffffffffffffff1916827bffffffffffffffffffffffffffffffffffffffffffffffffffffffff1916145b806104f057506104ef82610d17565b5b9050919050565b6060600080546105069061280e565b80601f01602080910402602001604051908101604052809291908181526020018280546105329061280e565b801561057f5780601f106105545761010080835404028352916020019161057f565b820191906000526020600020905b81548152906001019060200180831161056257829003601f168201915b5050505050905090565b600960009054906101000a900473ffffffffffffffffffffffffffffffffffffffff1681565b60006105ba82610d81565b506105c482610e09565b9050919050565b6105dd82826105d8610e46565b610e4e565b5050565b600073ffffffffffffffffffffffffffffffffffffffff168273ffffffffffffffffffffffffffffffffffffffff16036106535760006040517f64a0ae9200000000000000000000000000000000000000000000000000000000815260040161064a91906121d1565b60405180910390fd5b60006106678383610662610e46565b610e60565b90508373ffffffffffffffffffffffffffffffffffffffff168173ffffffffffffffffffffffffffffffffffffffff16146106dd578382826040517f64283d7b0000000000000000000000000000000000000000000000000000000081526004016106d49392919061283f565b60405180910390fd5b50505050565b6106fe83838360405180602001604052806000815250610921565b505050565b600061070e82610d81565b9050919050565b60008073ffffffffffffffffffffffffffffffffffffffff168273ffffffffffffffffffffffffffffffffffffffff16036107885760006040517f89c62b6400000000000000000000000000000000000000000000000000000000815260040161077f91906121d1565b60405180910390fd5b600360008373ffffffffffffffffffffffffffffffffffffffff1673ffffffffffffffffffffffffffffffffffffffff168152602001908152602001600020549050919050565b6000606080600080600060606107e361107a565b6107eb6110b5565b46306000801b600067ffffffffffffffff81111561080c5761080b612571565b5b60405190808252806020026020018201604052801561083a5781602001602082028036833780820191505090505b507f0f00000000000000000000000000000000000000000000000000000000000000959493929190965096509650965096509650965090919293949596565b6060600180546108889061280e565b80601f01602080910402602001604051908101604052809291908181526020018280546108b49061280e565b80156109015780601f106108d657610100808354040283529160200191610901565b820191906000526020600020905b8154815290600101906020018083116108e457829003601f168201915b5050505050905090565b61091d610916610e46565b83836110f0565b5050565b61092c8484846105e1565b610940610937610e46565b8585858561125f565b50505050565b6060600073ffffffffffffffffffffffffffffffffffffffff1661096983610703565b73ffffffffffffffffffffffffffffffffffffffff16036109bf576040517f08c379a00000000000000000000000000000000000000000000000000000000081526004016109b6906128c2565b60405180910390fd5b600a600083815260200190815260200160002080546109dd9061280e565b80601f0160208091040260200160405190810160405280929190818152602001828054610a099061280e565b8015610a565780601f10610a2b57610100808354040283529160200191610a56565b820191906000526020600020905b815481529060010190602001808311610a3957829003601f168201915b50505050509050919050565b6000600560008473ffffffffffffffffffffffffffffffffffffffff1673ffffffffffffffffffffffffffffffffffffffff16815260200190815260200160002060008373ffffffffffffffffffffffffffffffffffffffff1673ffffffffffffffffffffffffffffffffffffffff16815260200190815260200160002060009054906101000a900460ff16905092915050565b6000610b0182611410565b610b40576040517f08c379a0000000000000000000000000000000000000000000000000000000008152600401610b379061292e565b60405180910390fd5b600b828060600190610b52919061295d565b604051610b609291906129f0565b908152602001604051809103902060009054906101000a900460ff1615610bbc576040517f08c379a0000000000000000000000000000000000000000000000000000000008152600401610bb390612a55565b60405180910390fd5b8160400135341015610c03576040517f08c379a0000000000000000000000000000000000000000000000000000000008152600401610bfa90612ac1565b60405180910390fd5b6001600b838060600190610c17919061295d565b604051610c259291906129f0565b908152602001604051809103902060006101000a81548160ff0219169083151502179055506000600854905060086000815480929190610c6490612b10565b9190505550610c738482611551565b828060200190610c839190612b58565b600a60008481526020019081526020016000209182610ca3929190612d72565b50600960009054906101000a900473ffffffffffffffffffffffffffffffffffffffff1673ffffffffffffffffffffffffffffffffffffffff166108fc349081150290604051600060405180830381858888f19350505050158015610d0c573d6000803e3d6000fd5b508091505092915050565b60007f01ffc9a7000000000000000000000000000000000000000000000000000000007bffffffffffffffffffffffffffffffffffffffffffffffffffffffff1916827bffffffffffffffffffffffffffffffffffffffffffffffffffffffff1916149050919050565b600080610d8d8361156f565b9050600073ffffffffffffffffffffffffffffffffffffffff168173ffffffffffffffffffffffffffffffffffffffff1603610e0057826040517f7e273289000000000000000000000000000000000000000000000000000000008152600401610df7919061234a565b60405180910390fd5b80915050919050565b60006004600083815260200190815260200160002060009054906101000a900473ffffffffffffffffffffffffffffffffffffffff169050919050565b600033905090565b610e5b83838360016115ac565b505050565b600080610e6c8461156f565b9050600073ffffffffffffffffffffffffffffffffffffffff168373ffffffffffffffffffffffffffffffffffffffff1614610eae57610ead818486611771565b5b600073ffffffffffffffffffffffffffffffffffffffff168173ffffffffffffffffffffffffffffffffffffffff1614610f3f57610ef06000856000806115ac565b6001600360008373ffffffffffffffffffffffffffffffffffffffff1673ffffffffffffffffffffffffffffffffffffffff168152602001908152602001600020600082825403925050819055505b600073ffffffffffffffffffffffffffffffffffffffff168573ffffffffffffffffffffffffffffffffffffffff1614610fc2576001600360008773ffffffffffffffffffffffffffffffffffffffff1673ffffffffffffffffffffffffffffffffffffffff168152602001908152602001600020600082825401925050819055505b846002600086815260200190815260200160002060006101000a81548173ffffffffffffffffffffffffffffffffffffffff021916908373ffffffffffffffffffffffffffffffffffffffff160217905550838573ffffffffffffffffffffffffffffffffffffffff168273ffffffffffffffffffffffffffffffffffffffff167fddf252ad1be2c89b69c2b068fc378daa952ba7f163c4a11628f55a4df523b3ef60405160405180910390a4809150509392505050565b60606110b060067f000000000000000000000000000000000000000000000000000000000000000061183590919063ffffffff16565b905090565b60606110eb60077f000000000000000000000000000000000000000000000000000000000000000061183590919063ffffffff16565b905090565b600073ffffffffffffffffffffffffffffffffffffffff168273ffffffffffffffffffffffffffffffffffffffff160361116157816040517f5b08ba1800000000000000000000000000000000000000000000000000000000815260040161115891906121d1565b60405180910390fd5b80600560008573ffffffffffffffffffffffffffffffffffffffff1673ffffffffffffffffffffffffffffffffffffffff16815260200190815260200160002060008473ffffffffffffffffffffffffffffffffffffffff1673ffffffffffffffffffffffffffffffffffffffff16815260200190815260200160002060006101000a81548160ff0219169083151502179055508173ffffffffffffffffffffffffffffffffffffffff168373ffffffffffffffffffffffffffffffffffffffff167f17307eab39ab6107e8899845ad3d59bd9653f200f220920489ca2b5937696c318360405161125291906120c3565b60405180910390a3505050565b60008373ffffffffffffffffffffffffffffffffffffffff163b1115611409578273ffffffffffffffffffffffffffffffffffffffff1663150b7a02868685856040518563ffffffff1660e01b81526004016112be9493929190612e97565b6020604051808303816000875af19250505080156112fa57506040513d601f19601f820116820180604052508101906112f79190612ef8565b60015b61137e573d806000811461132a576040519150601f19603f3d011682016040523d82523d6000602084013e61132f565b606091505b50600081510361137657836040517f64a0ae9200000000000000000000000000000000000000000000000000000000815260040161136d91906121d1565b60405180910390fd5b805160208201fd5b63150b7a0260e01b7bffffffffffffffffffffffffffffffffffffffffffffffffffffffff1916817bffffffffffffffffffffffffffffffffffffffffffffffffffffffff19161461140757836040517f64a0ae920000000000000000000000000000000000000000000000000000000081526004016113fe91906121d1565b60405180910390fd5b505b5050505050565b6000806114957fc313c44abe7b9471f6e6151a39dadc2293e741d2f166ce98e663dd1a49208461846000013585806020019061144c9190612b58565b60405161145a9291906129f0565b6040518091039020866040013560405160200161147a9493929190612f25565b604051602081830303815290604052805190602001206118e5565b905060006114f5828580606001906114ad919061295d565b8080601f016020809104026020016040519081016040528093929190818152602001838380828437600081840152601f19601f820116905080830192505050505050506118ff565b9050600960009054906101000a900473ffffffffffffffffffffffffffffffffffffffff1673ffffffffffffffffffffffffffffffffffffffff168173ffffffffffffffffffffffffffffffffffffffff161492505050919050565b61156b82826040518060200160405280600081525061192b565b5050565b60006002600083815260200190815260200160002060009054906101000a900473ffffffffffffffffffffffffffffffffffffffff169050919050565b80806115e55750600073ffffffffffffffffffffffffffffffffffffffff168273ffffffffffffffffffffffffffffffffffffffff1614155b156117195760006115f584610d81565b9050600073ffffffffffffffffffffffffffffffffffffffff168373ffffffffffffffffffffffffffffffffffffffff161415801561166057508273ffffffffffffffffffffffffffffffffffffffff168173ffffffffffffffffffffffffffffffffffffffff1614155b801561167357506116718184610a62565b155b156116b557826040517fa9fbf51f0000000000000000000000000000000000000000000000000000000081526004016116ac91906121d1565b60405180910390fd5b811561171757838573ffffffffffffffffffffffffffffffffffffffff168273ffffffffffffffffffffffffffffffffffffffff167f8c5be1e5ebec7d5bd14f71427d1e84f3dd0314c0f7b2291e5b200ac8c7c3b92560405160405180910390a45b505b836004600085815260200190815260200160002060006101000a81548173ffffffffffffffffffffffffffffffffffffffff021916908373ffffffffffffffffffffffffffffffffffffffff16021790555050505050565b61177c83838361194f565b61183057600073ffffffffffffffffffffffffffffffffffffffff168373ffffffffffffffffffffffffffffffffffffffff16036117f157806040517f7e2732890000000000000000000000000000000000000000000000000000000081526004016117e8919061234a565b60405180910390fd5b81816040517f177e802f000000000000000000000000000000000000000000000000000000008152600401611827929190612f6a565b60405180910390fd5b505050565b606060ff60001b83146118525761184b83611a10565b90506118df565b81805461185e9061280e565b80601f016020809104026020016040519081016040528092919081815260200182805461188a9061280e565b80156118d75780601f106118ac576101008083540402835291602001916118d7565b820191906000526020600020905b8154815290600101906020018083116118ba57829003601f168201915b505050505090505b92915050565b60006118f86118f2611a84565b83611b3b565b9050919050565b60008060008061190f8686611b7c565b92509250925061191f8282611bd8565b82935050505092915050565b6119358383611d3c565b61194a611940610e46565b600085858561125f565b505050565b60008073ffffffffffffffffffffffffffffffffffffffff168373ffffffffffffffffffffffffffffffffffffffff1614158015611a0757508273ffffffffffffffffffffffffffffffffffffffff168473ffffffffffffffffffffffffffffffffffffffff1614806119c857506119c78484610a62565b5b80611a0657508273ffffffffffffffffffffffffffffffffffffffff166119ee83610e09565b73ffffffffffffffffffffffffffffffffffffffff16145b5b90509392505050565b60606000611a1d83611e35565b90506000602067ffffffffffffffff811115611a3c57611a3b612571565b5b6040519080825280601f01601f191660200182016040528015611a6e5781602001600182028036833780820191505090505b5090508181528360208201528092505050919050565b60007f000000000000000000000000000000000000000000000000000000000000000073ffffffffffffffffffffffffffffffffffffffff163073ffffffffffffffffffffffffffffffffffffffff16148015611b0057507f000000000000000000000000000000000000000000000000000000000000000046145b15611b2d577f00000000000000000000000000000000000000000000000000000000000000009050611b38565b611b35611e85565b90505b90565b60006040517f190100000000000000000000000000000000000000000000000000000000000081528360028201528260228201526042812091505092915050565b60008060006041845103611bc15760008060006020870151925060408701519150606087015160001a9050611bb388828585611f1b565b955095509550505050611bd1565b60006002855160001b9250925092505b9250925092565b60006003811115611bec57611beb612f93565b5b826003811115611bff57611bfe612f93565b5b0315611d385760016003811115611c1957611c18612f93565b5b826003811115611c2c57611c2b612f93565b5b03611c63576040517ff645eedf00000000000000000000000000000000000000000000000000000000815260040160405180910390fd5b60026003811115611c7757611c76612f93565b5b826003811115611c8a57611c89612f93565b5b03611ccf578060001c6040517ffce698f7000000000000000000000000000000000000000000000000000000008152600401611cc6919061234a565b60405180910390fd5b600380811115611ce257611ce1612f93565b5b826003811115611cf557611cf4612f93565b5b03611d3757806040517fd78bce0c000000000000000000000000000000000000000000000000000000008152600401611d2e9190612fc2565b60405180910390fd5b5b5050565b600073ffffffffffffffffffffffffffffffffffffffff168273ffffffffffffffffffffffffffffffffffffffff1603611dae5760006040517f64a0ae92000000000000000000000000000000000000000000000000000000008152600401611da591906121d1565b60405180910390fd5b6000611dbc83836000610e60565b9050600073ffffffffffffffffffffffffffffffffffffffff168173ffffffffffffffffffffffffffffffffffffffff1614611e305760006040517f73c6ac6e000000000000000000000000000000000000000000000000000000008152600401611e2791906121d1565b60405180910390fd5b505050565b60008060ff8360001c169050601f811115611e7c576040517fb3512b0c00000000000000000000000000000000000000000000000000000000815260040160405180910390fd5b80915050919050565b60007f8b73c3c69bb8fe3d512ecc4cf759cc79239f7b179b0ffacaa9a75d522b39400f7f00000000000000000000000000000000000000000000000000000000000000007f00000000000000000000000000000000000000000000000000000000000000004630604051602001611f00959493929190612fdd565b60405160208183030381529060405280519060200120905090565b60008060007f7fffffffffffffffffffffffffffffff5d576e7357a4501ddfe92f46681b20a08460001c1115611f5b576000600385925092509250612005565b600060018888888860405160008152602001604052604051611f80949392919061304c565b6020604051602081039080840390855afa158015611fa2573d6000803e3d6000fd5b505050602060405103519050600073ffffffffffffffffffffffffffffffffffffffff168173ffffffffffffffffffffffffffffffffffffffff1603611ff657600060016000801b93509350935050612005565b8060008060001b935093509350505b9450945094915050565b6000604051905090565b600080fd5b600080fd5b60007fffffffff0000000000000000000000000000000000000000000000000000000082169050919050565b61205881612023565b811461206357600080fd5b50565b6000813590506120758161204f565b92915050565b60006020828403121561209157612090612019565b5b600061209f84828501612066565b91505092915050565b60008115159050919050565b6120bd816120a8565b82525050565b60006020820190506120d860008301846120b4565b92915050565b600081519050919050565b600082825260208201905092915050565b60005b838110156121185780820151818401526020810190506120fd565b60008484015250505050565b6000601f19601f8301169050919050565b6000612140826120de565b61214a81856120e9565b935061215a8185602086016120fa565b61216381612124565b840191505092915050565b600060208201905081810360008301526121888184612135565b905092915050565b600073ffffffffffffffffffffffffffffffffffffffff82169050919050565b60006121bb82612190565b9050919050565b6121cb816121b0565b82525050565b60006020820190506121e660008301846121c2565b92915050565b6000819050919050565b6121ff816121ec565b811461220a57600080fd5b50565b60008135905061221c816121f6565b92915050565b60006020828403121561223857612237612019565b5b60006122468482850161220d565b91505092915050565b612258816121b0565b811461226357600080fd5b50565b6000813590506122758161224f565b92915050565b6000806040838503121561229257612291612019565b5b60006122a085828601612266565b92505060206122b18582860161220d565b9150509250929050565b6000806000606084860312156122d4576122d3612019565b5b60006122e286828701612266565b93505060206122f386828701612266565b92505060406123048682870161220d565b9150509250925092565b60006020828403121561232457612323612019565b5b600061233284828501612266565b91505092915050565b612344816121ec565b82525050565b600060208201905061235f600083018461233b565b92915050565b60007fff0000000000000000000000000000000000000000000000000000000000000082169050919050565b61239a81612365565b82525050565b6000819050919050565b6123b3816123a0565b82525050565b600081519050919050565b600082825260208201905092915050565b6000819050602082019050919050565b6123ee816121ec565b82525050565b600061240083836123e5565b60208301905092915050565b6000602082019050919050565b6000612424826123b9565b61242e81856123c4565b9350612439836123d5565b8060005b8381101561246a57815161245188826123f4565b975061245c8361240c565b92505060018101905061243d565b5085935050505092915050565b600060e08201905061248c600083018a612391565b818103602083015261249e8189612135565b905081810360408301526124b28188612135565b90506124c1606083018761233b565b6124ce60808301866121c2565b6124db60a08301856123aa565b81810360c08301526124ed8184612419565b905098975050505050505050565b612504816120a8565b811461250f57600080fd5b50565b600081359050612521816124fb565b92915050565b6000806040838503121561253e5761253d612019565b5b600061254c85828601612266565b925050602061255d85828601612512565b9150509250929050565b600080fd5b600080fd5b7f4e487b7100000000000000000000000000000000000000000000000000000000600052604160045260246000fd5b6125a982612124565b810181811067ffffffffffffffff821117156125c8576125c7612571565b5b80604052505050565b60006125db61200f565b90506125e782826125a0565b919050565b600067ffffffffffffffff82111561260757612606612571565b5b61261082612124565b9050602081019050919050565b82818337600083830152505050565b600061263f61263a846125ec565b6125d1565b90508281526020810184848401111561265b5761265a61256c565b5b61266684828561261d565b509392505050565b600082601f83011261268357612682612567565b5b813561269384826020860161262c565b91505092915050565b600080600080608085870312156126b6576126b5612019565b5b60006126c487828801612266565b94505060206126d587828801612266565b93505060406126e68782880161220d565b925050606085013567ffffffffffffffff8111156127075761270661201e565b5b6127138782880161266e565b91505092959194509250565b6000806040838503121561273657612735612019565b5b600061274485828601612266565b925050602061275585828601612266565b9150509250929050565b600080fd5b60006080828403121561277a5761277961275f565b5b81905092915050565b6000806040838503121561279a57612799612019565b5b60006127a885828601612266565b925050602083013567ffffffffffffffff8111156127c9576127c861201e565b5b6127d585828601612764565b9150509250929050565b7f4e487b7100000000000000000000000000000000000000000000000000000000600052602260045260246000fd5b6000600282049050600182168061282657607f821691505b602082108103612839576128386127df565b5b50919050565b600060608201905061285460008301866121c2565b612861602083018561233b565b61286e60408301846121c2565b949350505050565b7f546f6b656e20646f6573206e6f74206578697374000000000000000000000000600082015250565b60006128ac6014836120e9565b91506128b782612876565b602082019050919050565b600060208201905081810360008301526128db8161289f565b9050919050565b7f496e76616c6964207369676e6174757265000000000000000000000000000000600082015250565b60006129186011836120e9565b9150612923826128e2565b602082019050919050565b600060208201905081810360008301526129478161290b565b9050919050565b600080fd5b600080fd5b600080fd5b6000808335600160200384360303811261297a5761297961294e565b5b80840192508235915067ffffffffffffffff82111561299c5761299b612953565b5b6020830192506001820236038313156129b8576129b7612958565b5b509250929050565b600081905092915050565b60006129d783856129c0565b93506129e483858461261d565b82840190509392505050565b60006129fd8284866129cb565b91508190509392505050565b7f566f756368657220616c72656164792075736564000000000000000000000000600082015250565b6000612a3f6014836120e9565b9150612a4a82612a09565b602082019050919050565b60006020820190508181036000830152612a6e81612a32565b9050919050565b7f496e73756666696369656e74207061796d656e74000000000000000000000000600082015250565b6000612aab6014836120e9565b9150612ab682612a75565b602082019050919050565b60006020820190508181036000830152612ada81612a9e565b9050919050565b7f4e487b7100000000000000000000000000000000000000000000000000000000600052601160045260246000fd5b6000612b1b826121ec565b91507fffffffffffffffffffffffffffffffffffffffffffffffffffffffffffffffff8203612b4d57612b4c612ae1565b5b600182019050919050565b60008083356001602003843603038112612b7557612b7461294e565b5b80840192508235915067ffffffffffffffff821115612b9757612b96612953565b5b602083019250600182023603831315612bb357612bb2612958565b5b509250929050565b600082905092915050565b60008190508160005260206000209050919050565b60006020601f8301049050919050565b600082821b905092915050565b600060088302612c287fffffffffffffffffffffffffffffffffffffffffffffffffffffffffffffffff82612beb565b612c328683612beb565b95508019841693508086168417925050509392505050565b6000819050919050565b6000612c6f612c6a612c65846121ec565b612c4a565b6121ec565b9050919050565b6000819050919050565b612c8983612c54565b612c9d612c9582612c76565b848454612bf8565b825550505050565b600090565b612cb2612ca5565b612cbd818484612c80565b505050565b5b81811015612ce157612cd6600082612caa565b600181019050612cc3565b5050565b601f821115612d2657612cf781612bc6565b612d0084612bdb565b81016020851015612d0f578190505b612d23612d1b85612bdb565b830182612cc2565b50505b505050565b600082821c905092915050565b6000612d4960001984600802612d2b565b1980831691505092915050565b6000612d628383612d38565b9150826002028217905092915050565b612d7c8383612bbb565b67ffffffffffffffff811115612d9557612d94612571565b5b612d9f825461280e565b612daa828285612ce5565b6000601f831160018114612dd95760008415612dc7578287013590505b612dd18582612d56565b865550612e39565b601f198416612de786612bc6565b60005b82811015612e0f57848901358255600182019150602085019450602081019050612dea565b86831015612e2c5784890135612e28601f891682612d38565b8355505b6001600288020188555050505b50505050505050565b600081519050919050565b600082825260208201905092915050565b6000612e6982612e42565b612e738185612e4d565b9350612e838185602086016120fa565b612e8c81612124565b840191505092915050565b6000608082019050612eac60008301876121c2565b612eb960208301866121c2565b612ec6604083018561233b565b8181036060830152612ed88184612e5e565b905095945050505050565b600081519050612ef28161204f565b92915050565b600060208284031215612f0e57612f0d612019565b5b6000612f1c84828501612ee3565b91505092915050565b6000608082019050612f3a60008301876123aa565b612f47602083018661233b565b612f5460408301856123aa565b612f61606083018461233b565b95945050505050565b6000604082019050612f7f60008301856121c2565b612f8c602083018461233b565b9392505050565b7f4e487b7100000000000000000000000000000000000000000000000000000000600052602160045260246000fd5b6000602082019050612fd760008301846123aa565b92915050565b600060a082019050612ff260008301886123aa565b612fff60208301876123aa565b61300c60408301866123aa565b613019606083018561233b565b61302660808301846121c2565b9695505050505050565b600060ff82169050919050565b61304681613030565b82525050565b600060808201905061306160008301876123aa565b61306e602083018661303d565b61307b60408301856123aa565b61308860608301846123aa565b9594505050505056fea2646970667358221220741359455abc20188f6f36b5f091180f5c30c149a9bd0560375421dfd7c8f0fb64736f6c634300081c0033",
  "linkReferences": {},
  "deployedLinkReferences": {}
}