{
  "_format": "hh-sol-artifact-1",
  "contractName": "NFTMarketplace",
  "sourceName": "contracts/NFTMarketplace.sol",
  "abi": [
    {
      "inputs": [
        {
          "internalType": "address",
          "name": "_platformWallet",
          "type": "address"
        }
      ],
      "stateMutability": "nonpayable",
      "type": "constructor"
    },
    {
      "inputs": [],
      "name": "ReentrancyGuardReentrantCall",
      "type": "error"
    },
    {
      "anonymous": false,
      "inputs": [
        {
          "indexed": true,
          "internalType": "uint256",
          "name": "listingId",
          "type": "uint256"
        }
      ],
      "name": "ListingCancelled",
      "type": "event"
    },
    {
      "anonymous": false,
      "inputs": [
        {
          "indexed": true,
          "internalType": "uint256",
          "name": "listingId",
          "type": "uint256"
        },
        {
          "indexed": true,
          "internalType": "address",
          "name": "nftContract",
          "type": "address"
        },
        {
          "indexed": true,
          "internalType": "uint256",
          "name": "tokenId",
          "type": "uint256"
        },
        {
          "indexed": false,
          "internalType": "address",
          "name": "seller",
          "type": "address"
        },
        {
          "indexed": false,
          "internalType": "uint256",
          "name": "price",
          "type": "uint256"
        },
        {
          "indexed": false,
          "internalType": "enum NFTMarketplace.PaymentType",
          "name": "paymentType",
          "type": "uint8"
        }
      ],
      "name": "ListingCreated",
      "type": "event"
    },
    {
      "anonymous": false,
      "inputs": [
        {
          "indexed": true,
          "internalType": "uint256",
          "name": "listingId",
          "type": "uint256"
        },
        {
          "indexed": false,
          "internalType": "address",
          "name": "buyer",
          "type": "address"
        },
        {
          "indexed": false,
          "internalType": "uint256",
          "name": "price",
          "type": "uint256"
        }
      ],
      "name": "ListingSold",
      "type": "event"
    },
    {
      "inputs": [
        {
          "internalType": "uint256",
          "name": "listingId",
          "type": "uint256"
        }
      ],
      "name": "buyWithERC20",
      "outputs": [],
      "stateMutability": "nonpayable",
      "type": "function"
    },
    {
      "inputs": [
        {
          "internalType": "uint256",
          "name": "listingId",
          "type": "uint256"
        }
      ],
      "name": "buyWithETH",
      "outputs": [],
      "stateMutability": "payable",
      "type": "function"
    },
    {
      "inputs": [
        {
          "internalType": "uint256",
          "name": "listingId",
          "type": "uint256"
        }
      ],
      "name": "cancelListing",
      "outputs": [],
      "stateMutability": "nonpayable",
      "type": "function"
    },
    {
      "inputs": [
        {
          "internalType": "uint256",
          "name": "listingId",
          "type": "uint256"
        }
      ],
      "name": "getListing",
      "outputs": [
        {
          "components": [
            {
              "internalType": "uint256",
              "name": "listingId",
              "type": "uint256"
            },
            {
              "internalType": "address",
              "name": "nftContract",
              "type": "address"
            },
            {
              "internalType": "uint256",
              "name": "tokenId",
              "type": "uint256"
            },
            {
              "internalType": "address",
              "name": "seller",
              "type": "address"
            },
            {
              "internalType": "uint256",
              "name": "price",
              "type": "uint256"
            },
            {
              "internalType": "enum NFTMarketplace.PaymentType",
              "name": "paymentType",
              "type": "uint8"
            },
            {
              "internalType": "address",
              "name": "paymentToken",
              "type": "address"
            },
            {
              "internalType": "bool",
              "name": "active",
              "type": "bool"
            }
          ],
          "internalType": "struct NFTMarketplace.Listing",
          "name": "",
          "type": "tuple"
        }
      ],
      "stateMutability": "view",
      "type": "function"
    },
    {
      "inputs": [
        {
          "internalType": "address",
          "name": "nftContract",
          "type": "address"
        },
        {
          "internalType": "uint256",
          "name": "tokenId",
          "type": "uint256"
        },
        {
          "internalType": "uint256",
          "name": "price",
          "type": "uint256"
        },
        {
          "internalType": "address",
          "name": "paymentToken",
          "type": "address"
        }
      ],
      "name": "listNFTForERC20",
      "outputs": [],
      "stateMutability": "nonpayable",
      "type": "function"
    },
    {
      "inputs": [
        {
          "internalType": "address",
          "name": "nftContract",
          "type": "address"
        },
        {
          "internalType": "uint256",
          "name": "tokenId",
          "type": "uint256"
        },
        {
          "internalType": "uint256",
          "name": "price",
          "type": "uint256"
        }
      ],
      "name": "listNFTForETH",
      "outputs": [],
      "stateMutability": "nonpayable",
      "type": "function"
    },
    {
      "inputs": [],
      "name": "listingCounter",
      "outputs": [
        {
          "internalType": "uint256",
          "name": "",
          "type": "uint256"
        }
      ],
      "stateMutability": "view",
      "type": "function"
    },
    {
      "inputs": [
        {
          "internalType": "uint256",
          "name": "",
          "type": "uint256"
        }
      ],
      "name": "listings",
      "outputs": [
        {
          "internalType": "uint256",
          "name": "listingId",
          "type": "uint256"
        },
        {
          "internalType": "address",
          "name": "nftContract",
          "type": "address"
        },
        {
          "internalType": "uint256",
          "name": "tokenId",
          "type": "uint256"
        },
        {
          "internalType": "address",
          "name": "seller",
          "type": "address"
        },
        {
          "internalType": "uint256",
          "name": "price",
          "type": "uint256"
        },
        {
          "internalType": "enum NFTMarketplace.PaymentType",
          "name": "paymentType",
          "type": "uint8"
        },
        {
          "internalType": "address",
          "name": "paymentToken",
          "type": "address"
        },
        {
          "internalType": "bool",
          "name": "active",
          "type": "bool"
        }
      ],
      "stateMutability": "view",
      "type": "function"
    },
    {
      "inputs": [],
      "name": "platformFee",
      "outputs": [
        {
          "internalType": "uint256",
          "name": "",
          "type": "uint256"
        }
      ],
      "stateMutability": "view",
      "type": "function"
    },
    {
      "inputs": [],
      "name": "platformWallet",
      "outputs": [
        {
          "internalType": "address",
          "name": "",
          "type": "address"
        }
      ],
      "stateMutability": "view",
      "type": "function"
    }
  ],
  "bytecode": "0x6080604052601960025534801561001557600080fd5b50604051612522380380612522833981810160405281019061003791906100e9565b600160008190555080600360006101000a81548173ffffffffffffffffffffffffffffffffffffffff021916908373ffffffffffffffffffffffffffffffffffffffff16021790555050610116565b600080fd5b600073ffffffffffffffffffffffffffffffffffffffff82169050919050565b60006100b68261008b565b9050919050565b6100c6816100ab565b81146100d157600080fd5b50565b6000815190506100e3816100bd565b92915050565b6000602082840312156100ff576100fe610086565b5b600061010d848285016100d4565b91505092915050565b6123fd806101256000396000f3fe6080604052600436106100915760003560e01c806394dc9cf31161005957806394dc9cf31461017b578063b2630e1e14610197578063cbec66ea146101c0578063de74e57b146101e9578063fa2af9da1461022d57610091565b8063107a274a1461009657806323ca3412146100d357806326232a2e146100fc578063305a67a8146101275780636c2c9c7d14610150575b600080fd5b3480156100a257600080fd5b506100bd60048036038101906100b89190611933565b610258565b6040516100ca9190611ae4565b60405180910390f35b3480156100df57600080fd5b506100fa60048036038101906100f59190611933565b6103fc565b005b34801561010857600080fd5b5061011161082c565b60405161011e9190611b0f565b60405180910390f35b34801561013357600080fd5b5061014e60048036038101906101499190611933565b610832565b005b34801561015c57600080fd5b5061016561097a565b6040516101729190611b0f565b60405180910390f35b61019560048036038101906101909190611933565b610980565b005b3480156101a357600080fd5b506101be60048036038101906101b99190611b56565b610d41565b005b3480156101cc57600080fd5b506101e760048036038101906101e29190611ba9565b6111fc565b005b3480156101f557600080fd5b50610210600480360381019061020b9190611933565b611725565b604051610224989796959493929190611c3d565b60405180910390f35b34801561023957600080fd5b506102426117e7565b60405161024f9190611cbb565b60405180910390f35b61026061185d565b6004600083815260200190815260200160002060405180610100016040529081600082015481526020016001820160009054906101000a900473ffffffffffffffffffffffffffffffffffffffff1673ffffffffffffffffffffffffffffffffffffffff1673ffffffffffffffffffffffffffffffffffffffff168152602001600282015481526020016003820160009054906101000a900473ffffffffffffffffffffffffffffffffffffffff1673ffffffffffffffffffffffffffffffffffffffff1673ffffffffffffffffffffffffffffffffffffffff168152602001600482015481526020016005820160009054906101000a900460ff16600181111561036e5761036d6119b0565b5b60018111156103805761037f6119b0565b5b81526020016005820160019054906101000a900473ffffffffffffffffffffffffffffffffffffffff1673ffffffffffffffffffffffffffffffffffffffff1673ffffffffffffffffffffffffffffffffffffffff1681526020016005820160159054906101000a900460ff1615151515815250509050919050565b61040461180d565b60006004600083815260200190815260200160002090508060050160159054906101000a900460ff1661046c576040517f08c379a000000000000000000000000000000000000000000000000000000000815260040161046390611d33565b60405180910390fd5b60018081111561047f5761047e6119b0565b5b8160050160009054906101000a900460ff1660018111156104a3576104a26119b0565b5b146104e3576040517f08c379a00000000000000000000000000000000000000000000000000000000081526004016104da90611d9f565b60405180910390fd5b60008160050160156101000a81548160ff02191690831515021790555060006103e860025483600401546105179190611dee565b6105219190611e5f565b905060008183600401546105359190611e90565b905060008360050160019054906101000a900473ffffffffffffffffffffffffffffffffffffffff1690508073ffffffffffffffffffffffffffffffffffffffff166323b872dd33600360009054906101000a900473ffffffffffffffffffffffffffffffffffffffff16866040518463ffffffff1660e01b81526004016105bf93929190611ec4565b6020604051808303816000875af11580156105de573d6000803e3d6000fd5b505050506040513d601f19601f820116820180604052508101906106029190611f27565b610641576040517f08c379a000000000000000000000000000000000000000000000000000000000815260040161063890611fa0565b60405180910390fd5b8073ffffffffffffffffffffffffffffffffffffffff166323b872dd338660030160009054906101000a900473ffffffffffffffffffffffffffffffffffffffff16856040518463ffffffff1660e01b81526004016106a293929190611ec4565b6020604051808303816000875af11580156106c1573d6000803e3d6000fd5b505050506040513d601f19601f820116820180604052508101906106e59190611f27565b610724576040517f08c379a000000000000000000000000000000000000000000000000000000000815260040161071b9061200c565b60405180910390fd5b8360010160009054906101000a900473ffffffffffffffffffffffffffffffffffffffff1673ffffffffffffffffffffffffffffffffffffffff166342842e0e8560030160009054906101000a900473ffffffffffffffffffffffffffffffffffffffff163387600201546040518463ffffffff1660e01b81526004016107ad93929190611ec4565b600060405180830381600087803b1580156107c757600080fd5b505af11580156107db573d6000803e3d6000fd5b50505050847f8e378317cc1b9c64766fd136e5849da5f702d26a8f8b750115b7422909b2309f33866004015460405161081592919061202c565b60405180910390a250505050610829611853565b50565b60025481565b60006004600083815260200190815260200160002090503373ffffffffffffffffffffffffffffffffffffffff168160030160009054906101000a900473ffffffffffffffffffffffffffffffffffffffff1673ffffffffffffffffffffffffffffffffffffffff16146108db576040517f08c379a00000000000000000000000000000000000000000000000000000000081526004016108d2906120a1565b60405180910390fd5b8060050160159054906101000a900460ff1661092c576040517f08c379a000000000000000000000000000000000000000000000000000000000815260040161092390611d33565b60405180910390fd5b60008160050160156101000a81548160ff021916908315150217905550817f411aee90354c51b1b04cd563fcab2617142a9d50da19232d888547c8a1b7fd8a60405160405180910390a25050565b60015481565b61098861180d565b60006004600083815260200190815260200160002090508060050160159054906101000a900460ff166109f0576040517f08c379a00000000000000000000000000000000000000000000000000000000081526004016109e790611d33565b60405180910390fd5b60006001811115610a0457610a036119b0565b5b8160050160009054906101000a900460ff166001811115610a2857610a276119b0565b5b14610a68576040517f08c379a0000000000000000000000000000000000000000000000000000000008152600401610a5f9061210d565b60405180910390fd5b8060040154341015610aaf576040517f08c379a0000000000000000000000000000000000000000000000000000000008152600401610aa690612179565b60405180910390fd5b60008160050160156101000a81548160ff02191690831515021790555060006103e86002548360040154610ae39190611dee565b610aed9190611e5f565b90506000818360040154610b019190611e90565b90508260010160009054906101000a900473ffffffffffffffffffffffffffffffffffffffff1673ffffffffffffffffffffffffffffffffffffffff166342842e0e8460030160009054906101000a900473ffffffffffffffffffffffffffffffffffffffff163386600201546040518463ffffffff1660e01b8152600401610b8c93929190611ec4565b600060405180830381600087803b158015610ba657600080fd5b505af1158015610bba573d6000803e3d6000fd5b50505050600360009054906101000a900473ffffffffffffffffffffffffffffffffffffffff1673ffffffffffffffffffffffffffffffffffffffff166108fc839081150290604051600060405180830381858888f19350505050158015610c26573d6000803e3d6000fd5b508260030160009054906101000a900473ffffffffffffffffffffffffffffffffffffffff1673ffffffffffffffffffffffffffffffffffffffff166108fc829081150290604051600060405180830381858888f19350505050158015610c91573d6000803e3d6000fd5b508260040154341115610cf5573373ffffffffffffffffffffffffffffffffffffffff166108fc846004015434610cc89190611e90565b9081150290604051600060405180830381858888f19350505050158015610cf3573d6000803e3d6000fd5b505b837f8e378317cc1b9c64766fd136e5849da5f702d26a8f8b750115b7422909b2309f338560040154604051610d2b92919061202c565b60405180910390a2505050610d3e611853565b50565b60008390503373ffffffffffffffffffffffffffffffffffffffff168173ffffffffffffffffffffffffffffffffffffffff16636352211e856040518263ffffffff1660e01b8152600401610d969190611b0f565b602060405180830381865afa158015610db3573d6000803e3d6000fd5b505050506040513d601f19601f82011682018060405250810190610dd791906121ae565b73ffffffffffffffffffffffffffffffffffffffff1614610e2d576040517f08c379a0000000000000000000000000000000000000000000000000000000008152600401610e2490612227565b60405180910390fd5b3073ffffffffffffffffffffffffffffffffffffffff168173ffffffffffffffffffffffffffffffffffffffff1663081812fc856040518263ffffffff1660e01b8152600401610e7d9190611b0f565b602060405180830381865afa158015610e9a573d6000803e3d6000fd5b505050506040513d601f19601f82011682018060405250810190610ebe91906121ae565b73ffffffffffffffffffffffffffffffffffffffff161480610f5857508073ffffffffffffffffffffffffffffffffffffffff1663e985e9c533306040518363ffffffff1660e01b8152600401610f16929190612247565b602060405180830381865afa158015610f33573d6000803e3d6000fd5b505050506040513d601f19601f82011682018060405250810190610f579190611f27565b5b610f97576040517f08c379a0000000000000000000000000000000000000000000000000000000008152600401610f8e906122bc565b60405180910390fd5b60016000815480929190610faa906122dc565b919050555060405180610100016040528060015481526020018573ffffffffffffffffffffffffffffffffffffffff1681526020018481526020013373ffffffffffffffffffffffffffffffffffffffff1681526020018381526020016000600181111561101b5761101a6119b0565b5b8152602001600073ffffffffffffffffffffffffffffffffffffffff168152602001600115158152506004600060015481526020019081526020016000206000820151816000015560208201518160010160006101000a81548173ffffffffffffffffffffffffffffffffffffffff021916908373ffffffffffffffffffffffffffffffffffffffff1602179055506040820151816002015560608201518160030160006101000a81548173ffffffffffffffffffffffffffffffffffffffff021916908373ffffffffffffffffffffffffffffffffffffffff1602179055506080820151816004015560a08201518160050160006101000a81548160ff021916908360018111156111305761112f6119b0565b5b021790555060c08201518160050160016101000a81548173ffffffffffffffffffffffffffffffffffffffff021916908373ffffffffffffffffffffffffffffffffffffffff16021790555060e08201518160050160156101000a81548160ff021916908315150217905550905050828473ffffffffffffffffffffffffffffffffffffffff166001547fd2749730779e7e7c24c343f4081e51338b1a26409447b3809c441f749ed19618338660006040516111ee93929190612324565b60405180910390a450505050565b60008490503373ffffffffffffffffffffffffffffffffffffffff168173ffffffffffffffffffffffffffffffffffffffff16636352211e866040518263ffffffff1660e01b81526004016112519190611b0f565b602060405180830381865afa15801561126e573d6000803e3d6000fd5b505050506040513d601f19601f8201168201806040525081019061129291906121ae565b73ffffffffffffffffffffffffffffffffffffffff16146112e8576040517f08c379a00000000000000000000000000000000000000000000000000000000081526004016112df90612227565b60405180910390fd5b3073ffffffffffffffffffffffffffffffffffffffff168173ffffffffffffffffffffffffffffffffffffffff1663081812fc866040518263ffffffff1660e01b81526004016113389190611b0f565b602060405180830381865afa158015611355573d6000803e3d6000fd5b505050506040513d601f19601f8201168201806040525081019061137991906121ae565b73ffffffffffffffffffffffffffffffffffffffff16148061141357508073ffffffffffffffffffffffffffffffffffffffff1663e985e9c533306040518363ffffffff1660e01b81526004016113d1929190612247565b602060405180830381865afa1580156113ee573d6000803e3d6000fd5b505050506040513d601f19601f820116820180604052508101906114129190611f27565b5b611452576040517f08c379a0000000000000000000000000000000000000000000000000000000008152600401611449906122bc565b60405180910390fd5b600073ffffffffffffffffffffffffffffffffffffffff168273ffffffffffffffffffffffffffffffffffffffff16036114c1576040517f08c379a00000000000000000000000000000000000000000000000000000000081526004016114b8906123a7565b60405180910390fd5b600160008154809291906114d4906122dc565b919050555060405180610100016040528060015481526020018673ffffffffffffffffffffffffffffffffffffffff1681526020018581526020013373ffffffffffffffffffffffffffffffffffffffff168152602001848152602001600180811115611544576115436119b0565b5b81526020018373ffffffffffffffffffffffffffffffffffffffff168152602001600115158152506004600060015481526020019081526020016000206000820151816000015560208201518160010160006101000a81548173ffffffffffffffffffffffffffffffffffffffff021916908373ffffffffffffffffffffffffffffffffffffffff1602179055506040820151816002015560608201518160030160006101000a81548173ffffffffffffffffffffffffffffffffffffffff021916908373ffffffffffffffffffffffffffffffffffffffff1602179055506080820151816004015560a08201518160050160006101000a81548160ff02191690836001811115611658576116576119b0565b5b021790555060c08201518160050160016101000a81548173ffffffffffffffffffffffffffffffffffffffff021916908373ffffffffffffffffffffffffffffffffffffffff16021790555060e08201518160050160156101000a81548160ff021916908315150217905550905050838573ffffffffffffffffffffffffffffffffffffffff166001547fd2749730779e7e7c24c343f4081e51338b1a26409447b3809c441f749ed196183387600160405161171693929190612324565b60405180910390a45050505050565b60046020528060005260406000206000915090508060000154908060010160009054906101000a900473ffffffffffffffffffffffffffffffffffffffff16908060020154908060030160009054906101000a900473ffffffffffffffffffffffffffffffffffffffff16908060040154908060050160009054906101000a900460ff16908060050160019054906101000a900473ffffffffffffffffffffffffffffffffffffffff16908060050160159054906101000a900460ff16905088565b600360009054906101000a900473ffffffffffffffffffffffffffffffffffffffff1681565b600260005403611849576040517f3ee5aeb500000000000000000000000000000000000000000000000000000000815260040160405180910390fd5b6002600081905550565b6001600081905550565b60405180610100016040528060008152602001600073ffffffffffffffffffffffffffffffffffffffff16815260200160008152602001600073ffffffffffffffffffffffffffffffffffffffff16815260200160008152602001600060018111156118cc576118cb6119b0565b5b8152602001600073ffffffffffffffffffffffffffffffffffffffff1681526020016000151581525090565b600080fd5b6000819050919050565b611910816118fd565b811461191b57600080fd5b50565b60008135905061192d81611907565b92915050565b600060208284031215611949576119486118f8565b5b60006119578482850161191e565b91505092915050565b611969816118fd565b82525050565b600073ffffffffffffffffffffffffffffffffffffffff82169050919050565b600061199a8261196f565b9050919050565b6119aa8161198f565b82525050565b7f4e487b7100000000000000000000000000000000000000000000000000000000600052602160045260246000fd5b600281106119f0576119ef6119b0565b5b50565b6000819050611a01826119df565b919050565b6000611a11826119f3565b9050919050565b611a2181611a06565b82525050565b60008115159050919050565b611a3c81611a27565b82525050565b61010082016000820151611a596000850182611960565b506020820151611a6c60208501826119a1565b506040820151611a7f6040850182611960565b506060820151611a9260608501826119a1565b506080820151611aa56080850182611960565b5060a0820151611ab860a0850182611a18565b5060c0820151611acb60c08501826119a1565b5060e0820151611ade60e0850182611a33565b50505050565b600061010082019050611afa6000830184611a42565b92915050565b611b09816118fd565b82525050565b6000602082019050611b246000830184611b00565b92915050565b611b338161198f565b8114611b3e57600080fd5b50565b600081359050611b5081611b2a565b92915050565b600080600060608486031215611b6f57611b6e6118f8565b5b6000611b7d86828701611b41565b9350506020611b8e8682870161191e565b9250506040611b9f8682870161191e565b9150509250925092565b60008060008060808587031215611bc357611bc26118f8565b5b6000611bd187828801611b41565b9450506020611be28782880161191e565b9350506040611bf38782880161191e565b9250506060611c0487828801611b41565b91505092959194509250565b611c198161198f565b82525050565b611c2881611a06565b82525050565b611c3781611a27565b82525050565b600061010082019050611c53600083018b611b00565b611c60602083018a611c10565b611c6d6040830189611b00565b611c7a6060830188611c10565b611c876080830187611b00565b611c9460a0830186611c1f565b611ca160c0830185611c10565b611cae60e0830184611c2e565b9998505050505050505050565b6000602082019050611cd06000830184611c10565b92915050565b600082825260208201905092915050565b7f4c697374696e67206e6f74206163746976650000000000000000000000000000600082015250565b6000611d1d601283611cd6565b9150611d2882611ce7565b602082019050919050565b60006020820190508181036000830152611d4c81611d10565b9050919050565b7f4e6f74204552433230206c697374696e67000000000000000000000000000000600082015250565b6000611d89601183611cd6565b9150611d9482611d53565b602082019050919050565b60006020820190508181036000830152611db881611d7c565b9050919050565b7f4e487b7100000000000000000000000000000000000000000000000000000000600052601160045260246000fd5b6000611df9826118fd565b9150611e04836118fd565b9250828202611e12816118fd565b91508282048414831517611e2957611e28611dbf565b5b5092915050565b7f4e487b7100000000000000000000000000000000000000000000000000000000600052601260045260246000fd5b6000611e6a826118fd565b9150611e75836118fd565b925082611e8557611e84611e30565b5b828204905092915050565b6000611e9b826118fd565b9150611ea6836118fd565b9250828203905081811115611ebe57611ebd611dbf565b5b92915050565b6000606082019050611ed96000830186611c10565b611ee66020830185611c10565b611ef36040830184611b00565b949350505050565b611f0481611a27565b8114611f0f57600080fd5b50565b600081519050611f2181611efb565b92915050565b600060208284031215611f3d57611f3c6118f8565b5b6000611f4b84828501611f12565b91505092915050565b7f466565207472616e73666572206661696c656400000000000000000000000000600082015250565b6000611f8a601383611cd6565b9150611f9582611f54565b602082019050919050565b60006020820190508181036000830152611fb981611f7d565b9050919050565b7f5061796d656e74207472616e73666572206661696c6564000000000000000000600082015250565b6000611ff6601783611cd6565b915061200182611fc0565b602082019050919050565b6000602082019050818103600083015261202581611fe9565b9050919050565b60006040820190506120416000830185611c10565b61204e6020830184611b00565b9392505050565b7f4e6f74207468652073656c6c6572000000000000000000000000000000000000600082015250565b600061208b600e83611cd6565b915061209682612055565b602082019050919050565b600060208201905081810360008301526120ba8161207e565b9050919050565b7f4e6f7420455448206c697374696e670000000000000000000000000000000000600082015250565b60006120f7600f83611cd6565b9150612102826120c1565b602082019050919050565b60006020820190508181036000830152612126816120ea565b9050919050565b7f496e73756666696369656e74207061796d656e74000000000000000000000000600082015250565b6000612163601483611cd6565b915061216e8261212d565b602082019050919050565b6000602082019050818103600083015261219281612156565b9050919050565b6000815190506121a881611b2a565b92915050565b6000602082840312156121c4576121c36118f8565b5b60006121d284828501612199565b91505092915050565b7f4e6f7420746865206f776e657200000000000000000000000000000000000000600082015250565b6000612211600d83611cd6565b915061221c826121db565b602082019050919050565b6000602082019050818103600083015261224081612204565b9050919050565b600060408201905061225c6000830185611c10565b6122696020830184611c10565b9392505050565b7f4d61726b6574706c616365206e6f7420617070726f7665640000000000000000600082015250565b60006122a6601883611cd6565b91506122b182612270565b602082019050919050565b600060208201905081810360008301526122d581612299565b9050919050565b60006122e7826118fd565b91507fffffffffffffffffffffffffffffffffffffffffffffffffffffffffffffffff820361231957612318611dbf565b5b600182019050919050565b60006060820190506123396000830186611c10565b6123466020830185611b00565b6123536040830184611c1f565b949350505050565b7f496e76616c696420746f6b656e20616464726573730000000000000000000000600082015250565b6000612391601583611cd6565b915061239c8261235b565b602082019050919050565b600060208201905081810360008301526123c081612384565b905091905056fea2646970667358221220237bb6c5297634feb5875eafc9b082f7782a3aae5918e0363351855fb3b591d164736f6c634300081c0033",
  "linkReferences": {},
  "deployedLinkReferences": {}
}